{
  "contractName": "DoneToken",
  "abi": [
    {
      "inputs": [
        {
          "internalType": "contract IERC20",
          "name": "_projectToken",
          "type": "address"
        },
        {
          "internalType": "contract IERC20",
          "name": "_stableCoin",
          "type": "address"
        },
        {
          "internalType": "uint256",
          "name": "_rateToken",
          "type": "uint256"
        },
        {
          "internalType": "uint256",
          "name": "_fundingGoal",
          "type": "uint256"
        },
        {
          "internalType": "uint256",
          "name": "_fundingDeadline",
          "type": "uint256"
        },
        {
          "internalType": "string",
          "name": "_nameToken",
          "type": "string"
        }
      ],
      "stateMutability": "nonpayable",
      "type": "constructor"
    },
    {
      "anonymous": false,
      "inputs": [
        {
          "indexed": true,
          "internalType": "address",
          "name": "sponsor",
          "type": "address"
        },
        {
          "indexed": false,
          "internalType": "uint256",
          "name": "stableCoinAmount",
          "type": "uint256"
        },
        {
          "indexed": false,
          "internalType": "uint256",
          "name": "tokensIssued",
          "type": "uint256"
        }
      ],
      "name": "FundReceived",
      "type": "event"
    },
    {
      "anonymous": false,
      "inputs": [
        {
          "indexed": false,
          "internalType": "uint256",
          "name": "newGoal",
          "type": "uint256"
        }
      ],
      "name": "FundingGoalUpdated",
      "type": "event"
    },
    {
      "anonymous": false,
      "inputs": [
        {
          "indexed": false,
          "internalType": "bool",
          "name": "status",
          "type": "bool"
        }
      ],
      "name": "FundingStatusUpdated",
      "type": "event"
    },
    {
      "anonymous": false,
      "inputs": [
        {
          "indexed": false,
          "internalType": "uint256",
          "name": "amount",
          "type": "uint256"
        }
      ],
      "name": "FundsWithdrawn",
      "type": "event"
    },
    {
      "anonymous": false,
      "inputs": [
        {
          "indexed": true,
          "internalType": "address",
          "name": "previousOwner",
          "type": "address"
        },
        {
          "indexed": true,
          "internalType": "address",
          "name": "newOwner",
          "type": "address"
        }
      ],
      "name": "OwnershipTransferred",
      "type": "event"
    },
    {
      "anonymous": false,
      "inputs": [
        {
          "indexed": true,
          "internalType": "address",
          "name": "sponsor",
          "type": "address"
        },
        {
          "indexed": false,
          "internalType": "uint256",
          "name": "tokens",
          "type": "uint256"
        }
      ],
      "name": "TokensClaimed",
      "type": "event"
    },
    {
      "inputs": [],
      "name": "fundingActive",
      "outputs": [
        {
          "internalType": "bool",
          "name": "",
          "type": "bool"
        }
      ],
      "stateMutability": "view",
      "type": "function",
      "constant": true
    },
    {
      "inputs": [],
      "name": "fundingDeadline",
      "outputs": [
        {
          "internalType": "uint256",
          "name": "",
          "type": "uint256"
        }
      ],
      "stateMutability": "view",
      "type": "function",
      "constant": true
    },
    {
      "inputs": [],
      "name": "fundingGoal",
      "outputs": [
        {
          "internalType": "uint256",
          "name": "",
          "type": "uint256"
        }
      ],
      "stateMutability": "view",
      "type": "function",
      "constant": true
    },
    {
      "inputs": [],
      "name": "nameToken",
      "outputs": [
        {
          "internalType": "string",
          "name": "",
          "type": "string"
        }
      ],
      "stateMutability": "view",
      "type": "function",
      "constant": true
    },
    {
      "inputs": [],
      "name": "owner",
      "outputs": [
        {
          "internalType": "address",
          "name": "",
          "type": "address"
        }
      ],
      "stateMutability": "view",
      "type": "function",
      "constant": true
    },
    {
      "inputs": [],
      "name": "projectToken",
      "outputs": [
        {
          "internalType": "contract IERC20",
          "name": "",
          "type": "address"
        }
      ],
      "stateMutability": "view",
      "type": "function",
      "constant": true
    },
    {
      "inputs": [],
      "name": "rateToken",
      "outputs": [
        {
          "internalType": "uint256",
          "name": "",
          "type": "uint256"
        }
      ],
      "stateMutability": "view",
      "type": "function",
      "constant": true
    },
    {
      "inputs": [],
      "name": "renounceOwnership",
      "outputs": [],
      "stateMutability": "nonpayable",
      "type": "function"
    },
    {
      "inputs": [
        {
          "internalType": "address",
          "name": "",
          "type": "address"
        }
      ],
      "name": "sponsors",
      "outputs": [
        {
          "internalType": "uint256",
          "name": "stableCoinAmount",
          "type": "uint256"
        },
        {
          "internalType": "uint256",
          "name": "tokensReceived",
          "type": "uint256"
        }
      ],
      "stateMutability": "view",
      "type": "function",
      "constant": true
    },
    {
      "inputs": [],
      "name": "stableCoin",
      "outputs": [
        {
          "internalType": "contract IERC20",
          "name": "",
          "type": "address"
        }
      ],
      "stateMutability": "view",
      "type": "function",
      "constant": true
    },
    {
      "inputs": [],
      "name": "totalStableCoins",
      "outputs": [
        {
          "internalType": "uint256",
          "name": "",
          "type": "uint256"
        }
      ],
      "stateMutability": "view",
      "type": "function",
      "constant": true
    },
    {
      "inputs": [
        {
          "internalType": "address",
          "name": "newOwner",
          "type": "address"
        }
      ],
      "name": "transferOwnership",
      "outputs": [],
      "stateMutability": "nonpayable",
      "type": "function"
    },
    {
      "inputs": [
        {
          "internalType": "uint256",
          "name": "stablecoinAmount",
          "type": "uint256"
        }
      ],
      "name": "fundProject",
      "outputs": [],
      "stateMutability": "nonpayable",
      "type": "function"
    },
    {
      "inputs": [],
      "name": "withdrawFunds",
      "outputs": [],
      "stateMutability": "nonpayable",
      "type": "function"
    },
    {
      "inputs": [],
      "name": "endFunding",
      "outputs": [],
      "stateMutability": "nonpayable",
      "type": "function"
    },
    {
      "inputs": [
        {
          "internalType": "uint256",
          "name": "stablecoinAmount",
          "type": "uint256"
        }
      ],
      "name": "calculateTokensToIssue",
      "outputs": [
        {
          "internalType": "uint256",
          "name": "",
          "type": "uint256"
        }
      ],
      "stateMutability": "view",
      "type": "function",
      "constant": true
    },
    {
      "inputs": [],
      "name": "claimTokens",
      "outputs": [],
      "stateMutability": "nonpayable",
      "type": "function"
    },
    {
      "inputs": [
        {
          "internalType": "address",
          "name": "sponsor",
          "type": "address"
        }
      ],
      "name": "balanceOfStablecoin",
      "outputs": [
        {
          "internalType": "uint256",
          "name": "",
          "type": "uint256"
        }
      ],
      "stateMutability": "view",
      "type": "function",
      "constant": true
    },
    {
      "inputs": [
        {
          "internalType": "address",
          "name": "sponsor",
          "type": "address"
        }
      ],
      "name": "balanceOfTokens",
      "outputs": [
        {
          "internalType": "uint256",
          "name": "",
          "type": "uint256"
        }
      ],
      "stateMutability": "view",
      "type": "function",
      "constant": true
    },
    {
      "inputs": [
        {
          "internalType": "uint256",
          "name": "newRate",
          "type": "uint256"
        }
      ],
      "name": "updateRate",
      "outputs": [],
      "stateMutability": "nonpayable",
      "type": "function"
    },
    {
      "inputs": [],
      "name": "isGoalReached",
      "outputs": [
        {
          "internalType": "bool",
          "name": "",
          "type": "bool"
        }
      ],
      "stateMutability": "view",
      "type": "function",
      "constant": true
    },
    {
      "inputs": [
        {
          "internalType": "address",
          "name": "sponsor",
          "type": "address"
        }
      ],
      "name": "getTotalTokensReceived",
      "outputs": [
        {
          "internalType": "uint256",
          "name": "",
          "type": "uint256"
        }
      ],
      "stateMutability": "view",
      "type": "function",
      "constant": true
    },
    {
      "inputs": [
        {
          "internalType": "uint256",
          "name": "newGoal",
          "type": "uint256"
        }
      ],
      "name": "setFundingGoal",
      "outputs": [],
      "stateMutability": "nonpayable",
      "type": "function"
    }
  ],
  "bytecode": "0x60806040523480156200001157600080fd5b5060405162002774380380620027748339818101604052810190620000379190620004fb565b620000576200004b6200012e60201b60201c565b6200013660201b60201c565b85600160006101000a81548173ffffffffffffffffffffffffffffffffffffffff021916908373ffffffffffffffffffffffffffffffffffffffff16021790555084600260006101000a81548173ffffffffffffffffffffffffffffffffffffffff021916908373ffffffffffffffffffffffffffffffffffffffff160217905550836003819055508260068190555081600781905550806008908051906020019062000106929190620001fa565b506001600560006101000a81548160ff0219169083151502179055505050505050506200061a565b600033905090565b60008060009054906101000a900473ffffffffffffffffffffffffffffffffffffffff169050816000806101000a81548173ffffffffffffffffffffffffffffffffffffffff021916908373ffffffffffffffffffffffffffffffffffffffff1602179055508173ffffffffffffffffffffffffffffffffffffffff168173ffffffffffffffffffffffffffffffffffffffff167f8be0079c531659141344cd1fd0a4f28419497f9722a3daafe3b4186f6b6457e060405160405180910390a35050565b8280546200020890620005e5565b90600052602060002090601f0160209004810192826200022c576000855562000278565b82601f106200024757805160ff191683800117855562000278565b8280016001018555821562000278579182015b82811115620002775782518255916020019190600101906200025a565b5b5090506200028791906200028b565b5090565b5b80821115620002a65760008160009055506001016200028c565b5090565b6000604051905090565b600080fd5b600080fd5b600073ffffffffffffffffffffffffffffffffffffffff82169050919050565b6000620002eb82620002be565b9050919050565b6000620002ff82620002de565b9050919050565b6200031181620002f2565b81146200031d57600080fd5b50565b600081519050620003318162000306565b92915050565b6000819050919050565b6200034c8162000337565b81146200035857600080fd5b50565b6000815190506200036c8162000341565b92915050565b600080fd5b600080fd5b6000601f19601f8301169050919050565b7f4e487b7100000000000000000000000000000000000000000000000000000000600052604160045260246000fd5b620003c7826200037c565b810181811067ffffffffffffffff82111715620003e957620003e86200038d565b5b80604052505050565b6000620003fe620002aa565b90506200040c8282620003bc565b919050565b600067ffffffffffffffff8211156200042f576200042e6200038d565b5b6200043a826200037c565b9050602081019050919050565b60005b83811015620004675780820151818401526020810190506200044a565b8381111562000477576000848401525b50505050565b6000620004946200048e8462000411565b620003f2565b905082815260208101848484011115620004b357620004b262000377565b5b620004c084828562000447565b509392505050565b600082601f830112620004e057620004df62000372565b5b8151620004f28482602086016200047d565b91505092915050565b60008060008060008060c087890312156200051b576200051a620002b4565b5b60006200052b89828a0162000320565b96505060206200053e89828a0162000320565b95505060406200055189828a016200035b565b94505060606200056489828a016200035b565b93505060806200057789828a016200035b565b92505060a087015167ffffffffffffffff8111156200059b576200059a620002b9565b5b620005a989828a01620004c8565b9150509295509295509295565b7f4e487b7100000000000000000000000000000000000000000000000000000000600052602260045260246000fd5b60006002820490506001821680620005fe57607f821691505b602082108103620006145762000613620005b6565b5b50919050565b61214a806200062a6000396000f3fe608060405234801561001057600080fd5b506004361061014d5760003560e01c80636c563abe116100c3578063992642e51161007c578063992642e514610330578063aa78fe2d1461034e578063d35590c21461036c578063d3eb6f611461039d578063e5af8149146103bb578063f2fde38b146103eb5761014d565b80636c563abe146102925780636e311784146102ae578063715018a6146102cc578063796b23bb146102d65780637a3a0e84146102f45780638da5cb5b146103125761014d565b80633152dd00116101155780633152dd00146101f657806348c54b9d146102145780634b60ce771461021e578063576eac661461023c57806361ecf7611461025857806369ea1771146102765761014d565b80630ab194fe146101525780631c8eac0f146101825780631f720c471461018c57806324600fc3146101bc5780632ff57da8146101c6575b600080fd5b61016c600480360381019061016791906115a5565b610407565b60405161017991906115eb565b60405180910390f35b61018a610453565b005b6101a660048036038101906101a19190611632565b610532565b6040516101b391906115eb565b60405180910390f35b6101c461055c565b005b6101e060048036038101906101db91906115a5565b6107a0565b6040516101ed91906115eb565b60405180910390f35b6101fe6107ec565b60405161020b919061167a565b60405180910390f35b61021c6107ff565b005b610226610a1f565b60405161023391906116f4565b60405180910390f35b61025660048036038101906102519190611632565b610a45565b005b610260610b45565b60405161026d91906115eb565b60405180910390f35b610290600480360381019061028b9190611632565b610b4b565b005b6102ac60048036038101906102a79190611632565b610c14565b005b6102b6611130565b6040516102c391906117a8565b60405180910390f35b6102d46111be565b005b6102de611246565b6040516102eb91906115eb565b60405180910390f35b6102fc61124c565b60405161030991906115eb565b60405180910390f35b61031a611252565b60405161032791906117d9565b60405180910390f35b61033861127b565b60405161034591906116f4565b60405180910390f35b6103566112a1565b60405161036391906115eb565b60405180910390f35b610386600480360381019061038191906115a5565b6112a7565b6040516103949291906117f4565b60405180910390f35b6103a56112cb565b6040516103b2919061167a565b60405180910390f35b6103d560048036038101906103d091906115a5565b6112da565b6040516103e291906115eb565b60405180910390f35b610405600480360381019061040091906115a5565b61137f565b005b6000600960008373ffffffffffffffffffffffffffffffffffffffff1673ffffffffffffffffffffffffffffffffffffffff168152602001908152602001600020600101549050919050565b61045b611476565b73ffffffffffffffffffffffffffffffffffffffff16610479611252565b73ffffffffffffffffffffffffffffffffffffffff16146104cf576040517f08c379a00000000000000000000000000000000000000000000000000000000081526004016104c690611869565b60405180910390fd5b6000600560006101000a81548160ff0219169083151502179055507ff7b3bad702bc8789ee2f9af10ea4e3d305ba0ed97f715d761035a6f9be90f3c2600560009054906101000a900460ff16604051610528919061167a565b60405180910390a1565b6000600354670de0b6b3a76400008361054b91906118b8565b6105559190611941565b9050919050565b610564611476565b73ffffffffffffffffffffffffffffffffffffffff16610582611252565b73ffffffffffffffffffffffffffffffffffffffff16146105d8576040517f08c379a00000000000000000000000000000000000000000000000000000000081526004016105cf90611869565b60405180910390fd5b600560009054906101000a900460ff1615610628576040517f08c379a000000000000000000000000000000000000000000000000000000000815260040161061f906119be565b60405180910390fd5b6000600454905060008111610672576040517f08c379a000000000000000000000000000000000000000000000000000000000815260040161066990611a2a565b60405180910390fd5b60006004819055506000600260009054906101000a900473ffffffffffffffffffffffffffffffffffffffff1673ffffffffffffffffffffffffffffffffffffffff1663a9059cbb6106c2611252565b846040518363ffffffff1660e01b81526004016106e0929190611a4a565b6020604051808303816000875af11580156106ff573d6000803e3d6000fd5b505050506040513d601f19601f820116820180604052508101906107239190611a9f565b905080610765576040517f08c379a000000000000000000000000000000000000000000000000000000000815260040161075c90611b18565b60405180910390fd5b7f4a37b25aab49761ecf63117fe82b98d750917451133cf797507bc9fb5b96044a8260405161079491906115eb565b60405180910390a15050565b6000600960008373ffffffffffffffffffffffffffffffffffffffff1673ffffffffffffffffffffffffffffffffffffffff168152602001908152602001600020600101549050919050565b600560009054906101000a900460ff1681565b600560009054906101000a900460ff161561084f576040517f08c379a0000000000000000000000000000000000000000000000000000000008152600401610846906119be565b60405180910390fd5b6000600960003373ffffffffffffffffffffffffffffffffffffffff1673ffffffffffffffffffffffffffffffffffffffff1681526020019081526020016000209050600081600101549050600081116108de576040517f08c379a00000000000000000000000000000000000000000000000000000000081526004016108d590611b84565b60405180910390fd5b600082600101819055506000600160009054906101000a900473ffffffffffffffffffffffffffffffffffffffff1673ffffffffffffffffffffffffffffffffffffffff1663a9059cbb33846040518363ffffffff1660e01b8152600401610947929190611a4a565b6020604051808303816000875af1158015610966573d6000803e3d6000fd5b505050506040513d601f19601f8201168201806040525081019061098a9190611a9f565b9050806109cc576040517f08c379a00000000000000000000000000000000000000000000000000000000081526004016109c390611b18565b60405180910390fd5b3373ffffffffffffffffffffffffffffffffffffffff167f896e034966eaaf1adc54acc0f257056febbd300c9e47182cf761982cf1f5e43083604051610a1291906115eb565b60405180910390a2505050565b600160009054906101000a900473ffffffffffffffffffffffffffffffffffffffff1681565b610a4d611476565b73ffffffffffffffffffffffffffffffffffffffff16610a6b611252565b73ffffffffffffffffffffffffffffffffffffffff1614610ac1576040517f08c379a0000000000000000000000000000000000000000000000000000000008152600401610ab890611869565b60405180910390fd5b60008111610b04576040517f08c379a0000000000000000000000000000000000000000000000000000000008152600401610afb90611bf0565b60405180910390fd5b806006819055507f09a9671fca8e5e37803dabfda4f64763e2da096176b2ad2bbe5b82b3167d0a0481604051610b3a91906115eb565b60405180910390a150565b60035481565b610b53611476565b73ffffffffffffffffffffffffffffffffffffffff16610b71611252565b73ffffffffffffffffffffffffffffffffffffffff1614610bc7576040517f08c379a0000000000000000000000000000000000000000000000000000000008152600401610bbe90611869565b60405180910390fd5b60008111610c0a576040517f08c379a0000000000000000000000000000000000000000000000000000000008152600401610c0190611c5c565b60405180910390fd5b8060038190555050565b600560009054906101000a900460ff16610c63576040517f08c379a0000000000000000000000000000000000000000000000000000000008152600401610c5a90611cc8565b60405180910390fd5b600754421115610ca8576040517f08c379a0000000000000000000000000000000000000000000000000000000008152600401610c9f90611d34565b60405180910390fd5b60008111610ceb576040517f08c379a0000000000000000000000000000000000000000000000000000000008152600401610ce290611da0565b60405180910390fd5b600060035411610d30576040517f08c379a0000000000000000000000000000000000000000000000000000000008152600401610d2790611c5c565b60405180910390fd5b6000600260009054906101000a900473ffffffffffffffffffffffffffffffffffffffff1673ffffffffffffffffffffffffffffffffffffffff166370a08231336040518263ffffffff1660e01b8152600401610d8d91906117d9565b602060405180830381865afa158015610daa573d6000803e3d6000fd5b505050506040513d601f19601f82011682018060405250810190610dce9190611dd5565b905081811015610e13576040517f08c379a0000000000000000000000000000000000000000000000000000000008152600401610e0a90611e4e565b60405180910390fd5b6000600260009054906101000a900473ffffffffffffffffffffffffffffffffffffffff1673ffffffffffffffffffffffffffffffffffffffff1663dd62ed3e33306040518363ffffffff1660e01b8152600401610e72929190611e6e565b602060405180830381865afa158015610e8f573d6000803e3d6000fd5b505050506040513d601f19601f82011682018060405250810190610eb39190611dd5565b905082811015610ef8576040517f08c379a0000000000000000000000000000000000000000000000000000000008152600401610eef90611ee3565b60405180910390fd5b6000600260009054906101000a900473ffffffffffffffffffffffffffffffffffffffff1673ffffffffffffffffffffffffffffffffffffffff166323b872dd3330876040518463ffffffff1660e01b8152600401610f5993929190611f03565b6020604051808303816000875af1158015610f78573d6000803e3d6000fd5b505050506040513d601f19601f82011682018060405250810190610f9c9190611a9f565b905080610fde576040517f08c379a0000000000000000000000000000000000000000000000000000000008152600401610fd590611b18565b60405180910390fd5b6000600354670de0b6b3a764000086610ff791906118b8565b6110019190611941565b905060008111611046576040517f08c379a000000000000000000000000000000000000000000000000000000000815260040161103d90611fac565b60405180910390fd5b84600460008282546110589190611fcc565b925050819055506000600960003373ffffffffffffffffffffffffffffffffffffffff1673ffffffffffffffffffffffffffffffffffffffff1681526020019081526020016000209050858160000160008282546110b69190611fcc565b92505081905550818160010160008282546110d19190611fcc565b925050819055503373ffffffffffffffffffffffffffffffffffffffff167fb01599268f9e5876866cb213fd68ef71bcc2ffbc5981b15fab922cd59f13b1dd87846040516111209291906117f4565b60405180910390a2505050505050565b6008805461113d90612051565b80601f016020809104026020016040519081016040528092919081815260200182805461116990612051565b80156111b65780601f1061118b576101008083540402835291602001916111b6565b820191906000526020600020905b81548152906001019060200180831161119957829003601f168201915b505050505081565b6111c6611476565b73ffffffffffffffffffffffffffffffffffffffff166111e4611252565b73ffffffffffffffffffffffffffffffffffffffff161461123a576040517f08c379a000000000000000000000000000000000000000000000000000000000815260040161123190611869565b60405180910390fd5b611244600061147e565b565b60075481565b60065481565b60008060009054906101000a900473ffffffffffffffffffffffffffffffffffffffff16905090565b600260009054906101000a900473ffffffffffffffffffffffffffffffffffffffff1681565b60045481565b60096020528060005260406000206000915090508060000154908060010154905082565b60006006546004541015905090565b6000600260009054906101000a900473ffffffffffffffffffffffffffffffffffffffff1673ffffffffffffffffffffffffffffffffffffffff166370a08231836040518263ffffffff1660e01b815260040161133791906117d9565b602060405180830381865afa158015611354573d6000803e3d6000fd5b505050506040513d601f19601f820116820180604052508101906113789190611dd5565b9050919050565b611387611476565b73ffffffffffffffffffffffffffffffffffffffff166113a5611252565b73ffffffffffffffffffffffffffffffffffffffff16146113fb576040517f08c379a00000000000000000000000000000000000000000000000000000000081526004016113f290611869565b60405180910390fd5b600073ffffffffffffffffffffffffffffffffffffffff168173ffffffffffffffffffffffffffffffffffffffff160361146a576040517f08c379a0000000000000000000000000000000000000000000000000000000008152600401611461906120f4565b60405180910390fd5b6114738161147e565b50565b600033905090565b60008060009054906101000a900473ffffffffffffffffffffffffffffffffffffffff169050816000806101000a81548173ffffffffffffffffffffffffffffffffffffffff021916908373ffffffffffffffffffffffffffffffffffffffff1602179055508173ffffffffffffffffffffffffffffffffffffffff168173ffffffffffffffffffffffffffffffffffffffff167f8be0079c531659141344cd1fd0a4f28419497f9722a3daafe3b4186f6b6457e060405160405180910390a35050565b600080fd5b600073ffffffffffffffffffffffffffffffffffffffff82169050919050565b600061157282611547565b9050919050565b61158281611567565b811461158d57600080fd5b50565b60008135905061159f81611579565b92915050565b6000602082840312156115bb576115ba611542565b5b60006115c984828501611590565b91505092915050565b6000819050919050565b6115e5816115d2565b82525050565b600060208201905061160060008301846115dc565b92915050565b61160f816115d2565b811461161a57600080fd5b50565b60008135905061162c81611606565b92915050565b60006020828403121561164857611647611542565b5b60006116568482850161161d565b91505092915050565b60008115159050919050565b6116748161165f565b82525050565b600060208201905061168f600083018461166b565b92915050565b6000819050919050565b60006116ba6116b56116b084611547565b611695565b611547565b9050919050565b60006116cc8261169f565b9050919050565b60006116de826116c1565b9050919050565b6116ee816116d3565b82525050565b600060208201905061170960008301846116e5565b92915050565b600081519050919050565b600082825260208201905092915050565b60005b8381101561174957808201518184015260208101905061172e565b83811115611758576000848401525b50505050565b6000601f19601f8301169050919050565b600061177a8261170f565b611784818561171a565b935061179481856020860161172b565b61179d8161175e565b840191505092915050565b600060208201905081810360008301526117c2818461176f565b905092915050565b6117d381611567565b82525050565b60006020820190506117ee60008301846117ca565b92915050565b600060408201905061180960008301856115dc565b61181660208301846115dc565b9392505050565b7f4f776e61626c653a2063616c6c6572206973206e6f7420746865206f776e6572600082015250565b600061185360208361171a565b915061185e8261181d565b602082019050919050565b6000602082019050818103600083015261188281611846565b9050919050565b7f4e487b7100000000000000000000000000000000000000000000000000000000600052601160045260246000fd5b60006118c3826115d2565b91506118ce836115d2565b9250817fffffffffffffffffffffffffffffffffffffffffffffffffffffffffffffffff048311821515161561190757611906611889565b5b828202905092915050565b7f4e487b7100000000000000000000000000000000000000000000000000000000600052601260045260246000fd5b600061194c826115d2565b9150611957836115d2565b92508261196757611966611912565b5b828204905092915050565b7f46756e64696e67206973207374696c6c20616374697665000000000000000000600082015250565b60006119a860178361171a565b91506119b382611972565b602082019050919050565b600060208201905081810360008301526119d78161199b565b9050919050565b7f4e6f2066756e647320746f207769746864726177000000000000000000000000600082015250565b6000611a1460148361171a565b9150611a1f826119de565b602082019050919050565b60006020820190508181036000830152611a4381611a07565b9050919050565b6000604082019050611a5f60008301856117ca565b611a6c60208301846115dc565b9392505050565b611a7c8161165f565b8114611a8757600080fd5b50565b600081519050611a9981611a73565b92915050565b600060208284031215611ab557611ab4611542565b5b6000611ac384828501611a8a565b91505092915050565b7f5472616e73666572206661696c65640000000000000000000000000000000000600082015250565b6000611b02600f8361171a565b9150611b0d82611acc565b602082019050919050565b60006020820190508181036000830152611b3181611af5565b9050919050565b7f4e6f20746f6b656e7320746f20636c61696d0000000000000000000000000000600082015250565b6000611b6e60128361171a565b9150611b7982611b38565b602082019050919050565b60006020820190508181036000830152611b9d81611b61565b9050919050565b7f476f616c206d7573742062652067726561746572207468616e207a65726f0000600082015250565b6000611bda601e8361171a565b9150611be582611ba4565b602082019050919050565b60006020820190508181036000830152611c0981611bcd565b9050919050565b7f52617465206d7573742062652067726561746572207468616e207a65726f0000600082015250565b6000611c46601e8361171a565b9150611c5182611c10565b602082019050919050565b60006020820190508181036000830152611c7581611c39565b9050919050565b7f46756e64696e67206973206e6f74206163746976650000000000000000000000600082015250565b6000611cb260158361171a565b9150611cbd82611c7c565b602082019050919050565b60006020820190508181036000830152611ce181611ca5565b9050919050565b7f46756e64696e6720706572696f642068617320656e6465640000000000000000600082015250565b6000611d1e60188361171a565b9150611d2982611ce8565b602082019050919050565b60006020820190508181036000830152611d4d81611d11565b9050919050565b7f416d6f756e74206d7573742062652067726561746572207468616e207a65726f600082015250565b6000611d8a60208361171a565b9150611d9582611d54565b602082019050919050565b60006020820190508181036000830152611db981611d7d565b9050919050565b600081519050611dcf81611606565b92915050565b600060208284031215611deb57611dea611542565b5b6000611df984828501611dc0565b91505092915050565b7f496e73756666696369656e7420737461626c65636f696e2062616c616e636500600082015250565b6000611e38601f8361171a565b9150611e4382611e02565b602082019050919050565b60006020820190508181036000830152611e6781611e2b565b9050919050565b6000604082019050611e8360008301856117ca565b611e9060208301846117ca565b9392505050565b7f496e73756666696369656e7420616c6c6f77616e636500000000000000000000600082015250565b6000611ecd60168361171a565b9150611ed882611e97565b602082019050919050565b60006020820190508181036000830152611efc81611ec0565b9050919050565b6000606082019050611f1860008301866117ca565b611f2560208301856117ca565b611f3260408301846115dc565b949350505050565b7f496e73756666696369656e7420616d6f756e7420666f7220746f6b656e20697360008201527f7375616e63650000000000000000000000000000000000000000000000000000602082015250565b6000611f9660268361171a565b9150611fa182611f3a565b604082019050919050565b60006020820190508181036000830152611fc581611f89565b9050919050565b6000611fd7826115d2565b9150611fe2836115d2565b9250827fffffffffffffffffffffffffffffffffffffffffffffffffffffffffffffffff0382111561201757612016611889565b5b828201905092915050565b7f4e487b7100000000000000000000000000000000000000000000000000000000600052602260045260246000fd5b6000600282049050600182168061206957607f821691505b60208210810361207c5761207b612022565b5b50919050565b7f4f776e61626c653a206e6577206f776e657220697320746865207a65726f206160008201527f6464726573730000000000000000000000000000000000000000000000000000602082015250565b60006120de60268361171a565b91506120e982612082565b604082019050919050565b6000602082019050818103600083015261210d816120d1565b905091905056fea264697066735822122023061cd8ea589a8eb8d154d61390178f3951c74becb4eb05650e53a7965b0aec64736f6c634300080d0033",
  "immutableReferences": {},
  "source": "// SPDX-License-Identifier: MIT\r\npragma solidity ^0.8.0;\r\n\r\nimport \"@openzeppelin/contracts/token/ERC20/IERC20.sol\";\r\nimport \"@openzeppelin/contracts/access/Ownable.sol\";\r\n\r\ncontract DoneToken is Ownable {\r\n    IERC20 public projectToken;\r\n    IERC20 public stableCoin;\r\n    uint256 public rateToken;\r\n    uint256 public totalStableCoins;\r\n    bool public fundingActive;\r\n    uint256 public fundingGoal;\r\n    uint256 public fundingDeadline;\r\n    string public nameToken;\r\n\r\n    struct Sponsor {\r\n        uint256 stableCoinAmount;\r\n        uint256 tokensReceived;\r\n    }\r\n\r\n    mapping(address => Sponsor) public sponsors;\r\n\r\n    event FundReceived(address indexed sponsor, uint256 stableCoinAmount, uint256 tokensIssued);\r\n    event FundsWithdrawn(uint256 amount);\r\n    event FundingStatusUpdated(bool status);\r\n    event TokensClaimed(address indexed sponsor, uint256 tokens);\r\n    event FundingGoalUpdated(uint256 newGoal);\r\n\r\n    constructor(\r\n        IERC20 _projectToken,\r\n        IERC20 _stableCoin,\r\n        uint256 _rateToken,\r\n        uint256 _fundingGoal,\r\n        uint256 _fundingDeadline,\r\n        string memory _nameToken\r\n    ) Ownable() {\r\n        projectToken = _projectToken;\r\n        stableCoin = _stableCoin;\r\n        rateToken = _rateToken;\r\n        fundingGoal = _fundingGoal;\r\n        fundingDeadline = _fundingDeadline;\r\n        nameToken = _nameToken;\r\n        fundingActive = true;\r\n    }\r\n\r\n    modifier isFundingActive() {\r\n        require(fundingActive, \"Funding is not active\");\r\n        require(block.timestamp <= fundingDeadline, \"Funding period has ended\");\r\n        _;\r\n    }\r\n\r\n    function fundProject(uint256 stablecoinAmount) external isFundingActive {\r\n        require(stablecoinAmount > 0, \"Amount must be greater than zero\");\r\n        require(rateToken > 0, \"Rate must be greater than zero\");\r\n\r\n        uint256 sponsorBalance = stableCoin.balanceOf(msg.sender);\r\n        require(sponsorBalance >= stablecoinAmount, \"Insufficient stablecoin balance\");\r\n\r\n        uint256 allowance = stableCoin.allowance(msg.sender, address(this));\r\n        require(allowance >= stablecoinAmount, \"Insufficient allowance\");\r\n\r\n        bool transferSuccess = stableCoin.transferFrom(msg.sender, address(this), stablecoinAmount);\r\n        require(transferSuccess, \"Transfer failed\");\r\n\r\n        uint256 tokensToIssue = (stablecoinAmount * 10 ** 18) / rateToken;\r\n        require(tokensToIssue > 0, \"Insufficient amount for token issuance\");\r\n\r\n        totalStableCoins += stablecoinAmount;\r\n\r\n        Sponsor storage sponsor = sponsors[msg.sender];\r\n        sponsor.stableCoinAmount += stablecoinAmount;\r\n        sponsor.tokensReceived += tokensToIssue;\r\n\r\n        emit FundReceived(msg.sender, stablecoinAmount, tokensToIssue);\r\n    }\r\n\r\n    function withdrawFunds() external onlyOwner {\r\n        require(!fundingActive, \"Funding is still active\");\r\n        uint256 amount = totalStableCoins;\r\n        require(amount > 0, \"No funds to withdraw\");\r\n\r\n        totalStableCoins = 0;\r\n        bool transferSuccess = stableCoin.transfer(owner(), amount);\r\n        require(transferSuccess, \"Transfer failed\");\r\n\r\n        emit FundsWithdrawn(amount);\r\n    }\r\n\r\n    function endFunding() external onlyOwner {\r\n        fundingActive = false;\r\n        emit FundingStatusUpdated(fundingActive);\r\n    }\r\n\r\n    function calculateTokensToIssue(uint256 stablecoinAmount) public view returns (uint256) {\r\n        return (stablecoinAmount * 10 ** 18) / rateToken;\r\n    }\r\n\r\n    function claimTokens() external {\r\n        require(!fundingActive, \"Funding is still active\");\r\n\r\n        Sponsor storage sponsor = sponsors[msg.sender];\r\n        uint256 tokensToClaim = sponsor.tokensReceived;\r\n        require(tokensToClaim > 0, \"No tokens to claim\");\r\n\r\n        sponsor.tokensReceived = 0;\r\n\r\n        bool transferSuccess = projectToken.transfer(msg.sender, tokensToClaim);\r\n        require(transferSuccess, \"Transfer failed\");\r\n\r\n        emit TokensClaimed(msg.sender, tokensToClaim);\r\n    }\r\n\r\n    function balanceOfStablecoin(address sponsor) external view returns (uint256) {\r\n        return stableCoin.balanceOf(sponsor);\r\n    }\r\n\r\n    function balanceOfTokens(address sponsor) external view returns (uint256) {\r\n        return sponsors[sponsor].tokensReceived;\r\n    }\r\n\r\n    function updateRate(uint256 newRate) external onlyOwner {\r\n        require(newRate > 0, \"Rate must be greater than zero\");\r\n        rateToken = newRate;\r\n    }\r\n\r\n    function isGoalReached() public view returns (bool) {\r\n        return totalStableCoins >= fundingGoal;\r\n    }\r\n\r\n    function getTotalTokensReceived(address sponsor) public view returns (uint256) {\r\n        return sponsors[sponsor].tokensReceived;\r\n    }\r\n\r\n    // New function to update the funding goal\r\n    function setFundingGoal(uint256 newGoal) external onlyOwner {\r\n        require(newGoal > 0, \"Goal must be greater than zero\");\r\n        fundingGoal = newGoal;\r\n        emit FundingGoalUpdated(newGoal);\r\n    }\r\n}\r\n ",
  "sourcePath": "C:\\trufflecode\\truffle\\contracts\\DoneToken.sol",
  "compiler": {
    "name": "solc",
    "version": "0.8.13+commit.abaa5c0e.Emscripten.clang"
  },
  "schemaVersion": "3.4.16",
  "updatedAt": "2024-11-27T11:37:20.755Z",
  "networkType": "ethereum",
  "devdoc": {
    "kind": "dev",
    "methods": {
      "owner()": {
        "details": "Returns the address of the current owner."
      },
      "renounceOwnership()": {
        "details": "Leaves the contract without owner. It will not be possible to call `onlyOwner` functions anymore. Can only be called by the current owner. NOTE: Renouncing ownership will leave the contract without an owner, thereby removing any functionality that is only available to the owner."
      },
      "transferOwnership(address)": {
        "details": "Transfers ownership of the contract to a new account (`newOwner`). Can only be called by the current owner."
      }
    },
    "version": 1
  },
  "userdoc": {
    "kind": "user",
    "methods": {},
    "version": 1
  }
}